:020000040800F2
:1000000000500020C10200085D02000865020008DF
:100010006D020008750200087D0200080000000063
:100020000000000000000000000000008502000841
:1000300091020008000000009D020008A9020008CB
:100040000903000809030008090300080903000860
:100050000903000809030008090300080903000850
:100060000903000809030008090300080903000840
:100070000903000809030008090300080903000830
:100080000903000809030008090300080903000820
:100090000903000809030008090300080903000810
:1000A0000903000809030008090300080903000800
:1000B00021020008090300080903000809030008D9
:1000C00009030008090300080903000809030008E0
:1000D00009030008090300080903000809030008D0
:1000E00009030008090300080903000800000000D4
:1000F0000000000000000000000000000000000000
:0C01000000000000000000005FF808F1A3
:10010C0010B5054C237833B9044B13B10448AFF345
:10011C0000800123237010BD0400002000000000AB
:10012C007803000808B5034B1BB103490348AFF330
:10013C00008008BD000000000800002078030008C3
:10014C0080B483B000AF0346FB7197F90730002BE6
:10015C000BDBFB7903F01F02064997F907305B09AB
:10016C00012000FA02F241F8232000BF0C37BD46F3
:10017C0080BC704700E100E080B500AF00F004F8EF
:10018C0000F01EF800BFFDE780B400AF0A4B9B697E
:10019C00094A43F004039361084B1B68074A23F494
:1001AC0070031360054B1B68044A43F4001313607F
:1001BC0000BFBD4680BC70470010024000080140E3
:1001CC0080B500AF124BDB69114A43F00103D361D8
:1001DC004FF0804341F63F729A624FF0804340F2F9
:1001EC00F312DA624FF08043DB684FF0804243F049
:1001FC000103D3604FF080431B684FF0804243F003
:10020C00010313601C20FFF79BFF00BF80BD00BFE4
:10021C000010024080B400AF4FF080431B6903F024
:10022C000103002B0DD04FF080431B694FF080422F
:10023C0023F001031361054BDB68044A83F02003B0
:10024C00D36000BFBD4680BC704700BF00080140B2
:10025C0080B400AF00BFFDE780B400AF00BFFDE786
:10026C0080B400AF00BFFDE780B400AF00BFFDE776
:10027C0080B400AF00BFFDE780B400AF00BFBD4647
:10028C0080BC704780B400AF00BFBD4680BC7047D7
:10029C0080B400AF00BFBD4680BC704780B500AFD6
:1002AC0000F02EF800BF80BD80B400AF00BFBD468B
:1002BC0080BC7047FFF7F8FF0B480C490C4A002331
:1002CC0002E0D458C4500433C4188C42F9D3094A00
:1002DC00094C002301E013600432A242FBD300F06E
:1002EC0021F8FFF749FF70470000002004000020B0
:1002FC00980300080400002024000020FEE7000002
:10030C0080B400AF054B1B781A46054B1B68134491
:10031C00034A136000BFBD4680BC7047000000203C
:10032C002000002070B500260C4D0D4C641BA41051
:10033C00A64209D100F01AF800260A4D0A4C641B9B
:10034C00A410A64205D170BD55F8043B9847013660
:10035C00EEE755F8043B98470136F2E790030008A6
:10036C00900300089003000894030008F8B500BF40
:10037C00F8BC08BC9E467047F8B500BFF8BC08BC7A
:04038C009E467047D2
:04039000310100082F
:040394000D0100084F
:040398000100000060
:04000005080002C12C
:00000001FF
